{"abi":[{"type":"constructor","inputs":[{"name":"_playerBlack","type":"address","internalType":"address"},{"name":"_playerWhite","type":"address","internalType":"address"}],"stateMutability":"nonpayable"},{"type":"function","name":"board","inputs":[{"name":"","type":"uint256","internalType":"uint256"}],"outputs":[{"name":"","type":"uint8","internalType":"uint8"}],"stateMutability":"view"},{"type":"function","name":"currentPlayer","inputs":[],"outputs":[{"name":"","type":"uint8","internalType":"uint8"}],"stateMutability":"view"},{"type":"function","name":"getGameState","inputs":[],"outputs":[{"name":"boardState","type":"uint8[64]","internalType":"uint8[64]"},{"name":"playerTurn","type":"uint8","internalType":"uint8"},{"name":"gameResult","type":"uint8","internalType":"enum Othello.GameResult"}],"stateMutability":"view"},{"type":"function","name":"getScore","inputs":[],"outputs":[{"name":"blackScore","type":"uint8","internalType":"uint8"},{"name":"whiteScore","type":"uint8","internalType":"uint8"}],"stateMutability":"view"},{"type":"function","name":"getValidMoves","inputs":[{"name":"player","type":"uint8","internalType":"uint8"}],"outputs":[{"name":"moves","type":"bool[64]","internalType":"bool[64]"}],"stateMutability":"view"},{"type":"function","name":"getWinnerAddress","inputs":[],"outputs":[{"name":"","type":"address","internalType":"address"}],"stateMutability":"view"},{"type":"function","name":"isGameOver","inputs":[],"outputs":[{"name":"","type":"bool","internalType":"bool"}],"stateMutability":"view"},{"type":"function","name":"makeMove","inputs":[{"name":"x","type":"uint8","internalType":"uint8"},{"name":"y","type":"uint8","internalType":"uint8"}],"outputs":[],"stateMutability":"nonpayable"},{"type":"function","name":"playerBlack","inputs":[],"outputs":[{"name":"","type":"address","internalType":"address"}],"stateMutability":"view"},{"type":"function","name":"playerWhite","inputs":[],"outputs":[{"name":"","type":"address","internalType":"address"}],"stateMutability":"view"},{"type":"function","name":"result","inputs":[],"outputs":[{"name":"","type":"uint8","internalType":"enum Othello.GameResult"}],"stateMutability":"view"},{"type":"event","name":"Move","inputs":[{"name":"player","type":"address","indexed":true,"internalType":"address"},{"name":"x","type":"uint8","indexed":false,"internalType":"uint8"},{"name":"y","type":"uint8","indexed":false,"internalType":"uint8"}],"anonymous":false}],"bytecode":{"object":"0x608060405234801561000f575f5ffd5b5060405161202a38038061202a8339818101604052810190610031919061029f565b8160025f6101000a81548173ffffffffffffffffffffffffffffffffffffffff021916908373ffffffffffffffffffffffffffffffffffffffff1602179055508060035f6101000a81548173ffffffffffffffffffffffffffffffffffffffff021916908373ffffffffffffffffffffffffffffffffffffffff1602179055506001600360146101000a81548160ff021916908360ff1602179055505f600360156101000a81548160ff021916908360038111156100f2576100f16102dd565b5b021790555060025f61010b60038061022060201b60201c565b60ff166040811061011f5761011e61030a565b5b602091828204019190066101000a81548160ff021916908360ff16021790555060025f61015360048061022060201b60201c565b60ff16604081106101675761016661030a565b5b602091828204019190066101000a81548160ff021916908360ff16021790555060015f61019c6003600461022060201b60201c565b60ff16604081106101b0576101af61030a565b5b602091828204019190066101000a81548160ff021916908360ff16021790555060015f6101e56004600361022060201b60201c565b60ff16604081106101f9576101f861030a565b5b602091828204019190066101000a81548160ff021916908360ff16021790555050506103e0565b5f8260088361022f9190610370565b61023991906103ac565b905092915050565b5f5ffd5b5f73ffffffffffffffffffffffffffffffffffffffff82169050919050565b5f61026e82610245565b9050919050565b61027e81610264565b8114610288575f5ffd5b50565b5f8151905061029981610275565b92915050565b5f5f604083850312156102b5576102b4610241565b5b5f6102c28582860161028b565b92505060206102d38582860161028b565b9150509250929050565b7f4e487b71000000000000000000000000000000000000000000000000000000005f52602160045260245ffd5b7f4e487b71000000000000000000000000000000000000000000000000000000005f52603260045260245ffd5b5f60ff82169050919050565b7f4e487b71000000000000000000000000000000000000000000000000000000005f52601160045260245ffd5b5f61037a82610337565b915061038583610337565b925082820261039381610337565b91508082146103a5576103a4610343565b5b5092915050565b5f6103b682610337565b91506103c183610337565b9250828201905060ff8111156103da576103d9610343565b5b92915050565b611c3d806103ed5f395ff3fe608060405234801561000f575f5ffd5b50600436106100a7575f3560e01c8063653721471161006f5780636537214714610151578063a37470dc1461016f578063afd820671461018d578063b7d0628b146101ac578063bee7b695146101cc578063d647fa88146101fc576100a7565b80630e04a7d8146100ab57806310a37c26146100c957806328ed6e3f146100e75780634404a438146101175780635e24b0f114610135575b5f5ffd5b6100b361021a565b6040516100c09190611375565b60405180910390f35b6100d1610257565b6040516100de91906113cd565b60405180910390f35b61010160048036038101906100fc919061141d565b61039c565b60405161010e9190611463565b60405180910390f35b61011f6103c4565b60405161012c9190611463565b60405180910390f35b61014f600480360381019061014a91906114a6565b6103d7565b005b61015961087b565b6040516101669190611557565b60405180910390f35b61017761088e565b60405161018491906113cd565b60405180910390f35b6101956108b3565b6040516101a3929190611570565b60405180910390f35b6101b461096d565b6040516101c39392919061163c565b60405180910390f35b6101e660048036038101906101e19190611674565b610a06565b6040516101f39190611744565b60405180910390f35b610204610aac565b60405161021191906113cd565b60405180910390f35b5f5f600381111561022e5761022d6114e4565b5b600360159054906101000a900460ff1660038111156102505761024f6114e4565b5b1415905090565b5f5f600381111561026b5761026a6114e4565b5b600360159054906101000a900460ff16600381111561028d5761028c6114e4565b5b036102cd576040517f08c379a00000000000000000000000000000000000000000000000000000000081526004016102c4906117b8565b60405180910390fd5b600160038111156102e1576102e06114e4565b5b600360159054906101000a900460ff166003811115610303576103026114e4565b5b036103315760025f9054906101000a900473ffffffffffffffffffffffffffffffffffffffff169050610399565b60026003811115610345576103446114e4565b5b600360159054906101000a900460ff166003811115610367576103666114e4565b5b036103955760035f9054906101000a900473ffffffffffffffffffffffffffffffffffffffff169050610399565b5f90505b90565b5f81604081106103aa575f80fd5b60209182820401919006915054906101000a900460ff1681565b600360149054906101000a900460ff1681565b5f60038111156103ea576103e96114e4565b5b600360159054906101000a900460ff16600381111561040c5761040b6114e4565b5b1461044c576040517f08c379a000000000000000000000000000000000000000000000000000000000815260040161044390611820565b60405180910390fd5b60088260ff16108015610462575060088160ff16105b6104a1576040517f08c379a000000000000000000000000000000000000000000000000000000000815260040161049890611888565b60405180910390fd5b5f60ff165f6104b08484610ad1565b60ff16604081106104c4576104c36118a6565b5b602091828204019190069054906101000a900460ff1660ff161461051d576040517f08c379a00000000000000000000000000000000000000000000000000000000081526004016105149061191d565b60405180910390fd5b600160ff16600360149054906101000a900460ff1660ff1614801561058e575060025f9054906101000a900473ffffffffffffffffffffffffffffffffffffffff1673ffffffffffffffffffffffffffffffffffffffff163373ffffffffffffffffffffffffffffffffffffffff16145b806106065750600260ff16600360149054906101000a900460ff1660ff16148015610605575060035f9054906101000a900473ffffffffffffffffffffffffffffffffffffffff1673ffffffffffffffffffffffffffffffffffffffff163373ffffffffffffffffffffffffffffffffffffffff16145b5b610645576040517f08c379a000000000000000000000000000000000000000000000000000000000815260040161063c90611985565b60405180910390fd5b61065f8282600360149054906101000a900460ff16610af2565b61069e576040517f08c379a0000000000000000000000000000000000000000000000000000000008152600401610695906119ed565b60405180910390fd5b600360149054906101000a900460ff165f6106b98484610ad1565b60ff16604081106106cd576106cc6118a6565b5b602091828204019190066101000a81548160ff021916908360ff1602179055506107078282600360149054906101000a900460ff16610e0d565b5f610720600360149054906101000a900460ff16611228565b905061072b81611248565b156107505780600360146101000a81548160ff021916908360ff160217905550610826565b610768600360149054906101000a900460ff16611248565b610825575f5f6107766108b3565b915091508060ff168260ff1611156107b8576001600360156101000a81548160ff021916908360038111156107ae576107ad6114e4565b5b0217905550610822565b8160ff168160ff1611156107f6576002600360156101000a81548160ff021916908360038111156107ec576107eb6114e4565b5b0217905550610821565b60038060156101000a81548160ff0219169083600381111561081b5761081a6114e4565b5b02179055505b5b50505b5b3373ffffffffffffffffffffffffffffffffffffffff167f0a3a2dfe2816b2bd22f19c28b0cb22a0493ccc7b3685b69aee802451d3e7a4bc848460405161086e929190611570565b60405180910390a2505050565b600360159054906101000a900460ff1681565b60035f9054906101000a900473ffffffffffffffffffffffffffffffffffffffff1681565b5f5f5f5f90505b60408160ff16101561096857600160ff165f8260ff16604081106108e1576108e06118a6565b5b602091828204019190069054906101000a900460ff1660ff160361091257828061090a90611a38565b93505061095b565b600260ff165f8260ff166040811061092d5761092c6118a6565b5b602091828204019190069054906101000a900460ff1660ff160361095a57818061095690611a38565b9250505b5b80806001019150506108ba565b509091565b610975611315565b5f5f5f600360149054906101000a900460ff16600360159054906101000a900460ff16826040806020026040519081016040528092919082604080156109f4576020028201915f905b82829054906101000a900460ff1660ff16815260200190600101906020825f010492830192600103820291508084116109be5790505b50505050509250925092509250909192565b610a0e611338565b5f5f90505b60408160ff161015610aa6575f60ff165f8260ff1660408110610a3957610a386118a6565b5b602091828204019190069054906101000a900460ff1660ff1603610a99575f5f610a62836112f0565b91509150610a71828287610af2565b848460ff1660408110610a8757610a866118a6565b5b60200201901515908115158152505050505b8080600101915050610a13565b50919050565b60025f9054906101000a900473ffffffffffffffffffffffffffffffffffffffff1681565b5f82600883610ae09190611a60565b610aea9190611a9c565b905092915050565b5f5f610afd83611228565b90505f60405180610100016040528060015f0b5f0b81526020017fffffffffffffffffffffffffffffffffffffffffffffffffffffffffffffffff5f0b5f0b81526020015f5f0b5f0b81526020015f5f0b5f0b815260200160015f0b5f0b81526020017fffffffffffffffffffffffffffffffffffffffffffffffffffffffffffffffff5f0b5f0b815260200160015f0b5f0b81526020017fffffffffffffffffffffffffffffffffffffffffffffffffffffffffffffffff5f0b5f0b81525090505f6040518061010001604052805f5f0b5f0b81526020015f5f0b5f0b815260200160015f0b5f0b81526020017fffffffffffffffffffffffffffffffffffffffffffffffffffffffffffffffff5f0b5f0b815260200160015f0b5f0b815260200160015f0b5f0b81526020017fffffffffffffffffffffffffffffffffffffffffffffffffffffffffffffffff5f0b5f0b81526020017fffffffffffffffffffffffffffffffffffffffffffffffffffffffffffffffff5f0b5f0b81525090505f5f90505b60088160ff161015610dfe575f838260ff1660088110610ca757610ca66118a6565b5b602002015189610cb79190611adb565b90505f838360ff1660088110610cd057610ccf6118a6565b5b602002015189610ce09190611adb565b90505f5f90505b5f835f0b12158015610cfb57506008835f0b125b8015610d0957505f825f0b12155b8015610d1757506008825f0b125b15610dee575f5f610d288585610ad1565b60ff1660408110610d3c57610d3b6118a6565b5b602091828204019190069054906101000a900460ff1690508760ff168160ff1603610d6a5760019150610d98565b8960ff168160ff16148015610d7c5750815b15610d9257600198505050505050505050610e06565b50610dee565b868560ff1660088110610dae57610dad6118a6565b5b602002015184610dbe9190611adb565b9350858560ff1660088110610dd657610dd56118a6565b5b602002015183610de69190611adb565b925050610ce7565b5050508080600101915050610c84565b505f93505050505b9392505050565b5f610e1782611228565b90505f60405180610100016040528060015f0b5f0b81526020017fffffffffffffffffffffffffffffffffffffffffffffffffffffffffffffffff5f0b5f0b81526020015f5f0b5f0b81526020015f5f0b5f0b815260200160015f0b5f0b81526020017fffffffffffffffffffffffffffffffffffffffffffffffffffffffffffffffff5f0b5f0b815260200160015f0b5f0b81526020017fffffffffffffffffffffffffffffffffffffffffffffffffffffffffffffffff5f0b5f0b81525090505f6040518061010001604052805f5f0b5f0b81526020015f5f0b5f0b815260200160015f0b5f0b81526020017fffffffffffffffffffffffffffffffffffffffffffffffffffffffffffffffff5f0b5f0b815260200160015f0b5f0b815260200160015f0b5f0b81526020017fffffffffffffffffffffffffffffffffffffffffffffffffffffffffffffffff5f0b5f0b81526020017fffffffffffffffffffffffffffffffffffffffffffffffffffffffffffffffff5f0b5f0b81525090505f5f90505b60088160ff16101561121f575f838260ff1660088110610fc157610fc06118a6565b5b602002015188610fd19190611adb565b90505f838360ff1660088110610fea57610fe96118a6565b5b602002015188610ffa9190611adb565b90505f5f90505f5f90505b5f845f0b1215801561101957506008845f0b125b801561102757505f835f0b12155b801561103557506008835f0b125b1561120e575f5f6110468686610ad1565b60ff166040811061105a576110596118a6565b5b602091828204019190069054906101000a900460ff1690508860ff168160ff16036110965760019250818061108e90611b33565b9250506111b8565b8960ff168160ff161480156110a85750825b156111b2575f888760ff16600881106110c4576110c36118a6565b5b60200201518d6110d49190611adb565b90505f888860ff16600881106110ed576110ec6118a6565b5b60200201518d6110fd9190611adb565b90505f5f90505b848110156111a9578c5f6111188585610ad1565b60ff166040811061112c5761112b6118a6565b5b602091828204019190066101000a81548160ff021916908360ff1602179055508a8960ff1660088110611162576111616118a6565b5b6020020151836111729190611adb565b9250898960ff166008811061118a576111896118a6565b5b60200201518261119a9190611adb565b91508080600101915050611104565b5050505061120e565b5061120e565b878660ff16600881106111ce576111cd6118a6565b5b6020020151856111de9190611adb565b9450868660ff16600881106111f6576111f56118a6565b5b6020020151846112069190611adb565b935050611005565b505050508080600101915050610f9e565b50505050505050565b5f600160ff168260ff161461123e576001611241565b60025b9050919050565b5f5f5f90505b60088160ff1610156112e6575f5f90505b60088160ff1610156112d8575f60ff165f61127a8484610ad1565b60ff166040811061128e5761128d6118a6565b5b602091828204019190069054906101000a900460ff1660ff161480156112bb57506112ba828286610af2565b5b156112cb576001925050506112eb565b808060010191505061125f565b50808060010191505061124e565b505f90505b919050565b5f5f6008836112ff9190611ba7565b60088461130c9190611bd7565b91509150915091565b604051806108000160405280604090602082028036833780820191505090505090565b604051806108000160405280604090602082028036833780820191505090505090565b5f8115159050919050565b61136f8161135b565b82525050565b5f6020820190506113885f830184611366565b92915050565b5f73ffffffffffffffffffffffffffffffffffffffff82169050919050565b5f6113b78261138e565b9050919050565b6113c7816113ad565b82525050565b5f6020820190506113e05f8301846113be565b92915050565b5f5ffd5b5f819050919050565b6113fc816113ea565b8114611406575f5ffd5b50565b5f81359050611417816113f3565b92915050565b5f60208284031215611432576114316113e6565b5b5f61143f84828501611409565b91505092915050565b5f60ff82169050919050565b61145d81611448565b82525050565b5f6020820190506114765f830184611454565b92915050565b61148581611448565b811461148f575f5ffd5b50565b5f813590506114a08161147c565b92915050565b5f5f604083850312156114bc576114bb6113e6565b5b5f6114c985828601611492565b92505060206114da85828601611492565b9150509250929050565b7f4e487b71000000000000000000000000000000000000000000000000000000005f52602160045260245ffd5b60048110611522576115216114e4565b5b50565b5f81905061153282611511565b919050565b5f61154182611525565b9050919050565b61155181611537565b82525050565b5f60208201905061156a5f830184611548565b92915050565b5f6040820190506115835f830185611454565b6115906020830184611454565b9392505050565b5f60409050919050565b5f81905092915050565b5f819050919050565b6115bd81611448565b82525050565b5f6115ce83836115b4565b60208301905092915050565b5f602082019050919050565b6115ef81611597565b6115f981846115a1565b9250611604826115ab565b805f5b8381101561163457815161161b87826115c3565b9650611626836115da565b925050600181019050611607565b505050505050565b5f610840820190506116505f8301866115e6565b61165e610800830185611454565b61166c610820830184611548565b949350505050565b5f60208284031215611689576116886113e6565b5b5f61169684828501611492565b91505092915050565b5f60409050919050565b5f81905092915050565b5f819050919050565b6116c58161135b565b82525050565b5f6116d683836116bc565b60208301905092915050565b5f602082019050919050565b6116f78161169f565b61170181846116a9565b925061170c826116b3565b805f5b8381101561173c57815161172387826116cb565b965061172e836116e2565b92505060018101905061170f565b505050505050565b5f610800820190506117585f8301846116ee565b92915050565b5f82825260208201905092915050565b7f47616d65206973206e6f74206f766572207965740000000000000000000000005f82015250565b5f6117a260148361175e565b91506117ad8261176e565b602082019050919050565b5f6020820190508181035f8301526117cf81611796565b9050919050565b7f47616d65206973206f76657200000000000000000000000000000000000000005f82015250565b5f61180a600c8361175e565b9150611815826117d6565b602082019050919050565b5f6020820190508181035f830152611837816117fe565b9050919050565b7f4f7574206f6620626f756e6473000000000000000000000000000000000000005f82015250565b5f611872600d8361175e565b915061187d8261183e565b602082019050919050565b5f6020820190508181035f83015261189f81611866565b9050919050565b7f4e487b71000000000000000000000000000000000000000000000000000000005f52603260045260245ffd5b7f5370616365206973206e6f7420656d70747900000000000000000000000000005f82015250565b5f61190760128361175e565b9150611912826118d3565b602082019050919050565b5f6020820190508181035f830152611934816118fb565b9050919050565b7f4e6f7420796f7572207475726e000000000000000000000000000000000000005f82015250565b5f61196f600d8361175e565b915061197a8261193b565b602082019050919050565b5f6020820190508181035f83015261199c81611963565b9050919050565b7f496e76616c6964206d6f766500000000000000000000000000000000000000005f82015250565b5f6119d7600c8361175e565b91506119e2826119a3565b602082019050919050565b5f6020820190508181035f830152611a04816119cb565b9050919050565b7f4e487b71000000000000000000000000000000000000000000000000000000005f52601160045260245ffd5b5f611a4282611448565b915060ff8203611a5557611a54611a0b565b5b600182019050919050565b5f611a6a82611448565b9150611a7583611448565b9250828202611a8381611448565b9150808214611a9557611a94611a0b565b5b5092915050565b5f611aa682611448565b9150611ab183611448565b9250828201905060ff811115611aca57611ac9611a0b565b5b92915050565b5f815f0b9050919050565b5f611ae582611ad0565b9150611af083611ad0565b925082820190507fffffffffffffffffffffffffffffffffffffffffffffffffffffffffffffff808112607f82131715611b2d57611b2c611a0b565b5b92915050565b5f611b3d826113ea565b91507fffffffffffffffffffffffffffffffffffffffffffffffffffffffffffffffff8203611b6f57611b6e611a0b565b5b600182019050919050565b7f4e487b71000000000000000000000000000000000000000000000000000000005f52601260045260245ffd5b5f611bb182611448565b9150611bbc83611448565b925082611bcc57611bcb611b7a565b5b828206905092915050565b5f611be182611448565b9150611bec83611448565b925082611bfc57611bfb611b7a565b5b82820490509291505056fea2646970667358221220939de38b38d8b3c39e00f85aa8911dab761266bbb1b54bf4558a6c24034e269f64736f6c63430008210033","linkReferences":{}},"methodIdentifiers":{"board(uint256)":"28ed6e3f","currentPlayer()":"4404a438","getGameState()":"b7d0628b","getScore()":"afd82067","getValidMoves(uint8)":"bee7b695","getWinnerAddress()":"10a37c26","isGameOver()":"0e04a7d8","makeMove(uint8,uint8)":"5e24b0f1","playerBlack()":"d647fa88","playerWhite()":"a37470dc","result()":"65372147"},"id":19}